{
  "contractName": "SocialNetwork",
  "abi": [
    {
      "constant": true,
      "inputs": [],
      "name": "name",
      "outputs": [
        {
          "name": "",
          "type": "string"
        }
      ],
      "payable": false,
      "stateMutability": "view",
      "type": "function",
      "signature": "0x06fdde03"
    },
    {
      "constant": true,
      "inputs": [
        {
          "name": "",
          "type": "uint256"
        }
      ],
      "name": "posts",
      "outputs": [
        {
          "name": "id",
          "type": "uint256"
        },
        {
          "name": "name",
          "type": "string"
        },
        {
          "name": "hash",
          "type": "string"
        },
        {
          "name": "content",
          "type": "string"
        },
        {
          "name": "tipAmount",
          "type": "uint256"
        },
        {
          "name": "author",
          "type": "address"
        }
      ],
      "payable": false,
      "stateMutability": "view",
      "type": "function",
      "signature": "0x0b1e7f83"
    },
    {
      "constant": true,
      "inputs": [],
      "name": "postCount",
      "outputs": [
        {
          "name": "",
          "type": "uint256"
        }
      ],
      "payable": false,
      "stateMutability": "view",
      "type": "function",
      "signature": "0x17906c2e"
    },
    {
      "constant": true,
      "inputs": [
        {
          "name": "",
          "type": "uint256"
        }
      ],
      "name": "commentCount",
      "outputs": [
        {
          "name": "",
          "type": "uint256"
        }
      ],
      "payable": false,
      "stateMutability": "view",
      "type": "function",
      "signature": "0x355933f2"
    },
    {
      "constant": true,
      "inputs": [],
      "name": "profilecount",
      "outputs": [
        {
          "name": "",
          "type": "uint256"
        }
      ],
      "payable": false,
      "stateMutability": "view",
      "type": "function",
      "signature": "0x4ec2491e"
    },
    {
      "constant": true,
      "inputs": [],
      "name": "allCommentCount",
      "outputs": [
        {
          "name": "",
          "type": "uint256"
        }
      ],
      "payable": false,
      "stateMutability": "view",
      "type": "function",
      "signature": "0x6845dabd"
    },
    {
      "constant": true,
      "inputs": [],
      "name": "flag",
      "outputs": [
        {
          "name": "",
          "type": "uint256"
        }
      ],
      "payable": false,
      "stateMutability": "view",
      "type": "function",
      "signature": "0x890eba68"
    },
    {
      "constant": true,
      "inputs": [
        {
          "name": "",
          "type": "uint256"
        }
      ],
      "name": "comments",
      "outputs": [
        {
          "name": "id",
          "type": "uint256"
        },
        {
          "name": "postId",
          "type": "uint256"
        },
        {
          "name": "content",
          "type": "string"
        },
        {
          "name": "aurthor",
          "type": "address"
        }
      ],
      "payable": false,
      "stateMutability": "view",
      "type": "function",
      "signature": "0x8ebb4c15"
    },
    {
      "constant": true,
      "inputs": [
        {
          "name": "",
          "type": "uint256"
        }
      ],
      "name": "commentid",
      "outputs": [
        {
          "name": "",
          "type": "uint256"
        }
      ],
      "payable": false,
      "stateMutability": "view",
      "type": "function",
      "signature": "0xbc381903"
    },
    {
      "constant": true,
      "inputs": [],
      "name": "accountcount",
      "outputs": [
        {
          "name": "",
          "type": "uint256"
        }
      ],
      "payable": false,
      "stateMutability": "view",
      "type": "function",
      "signature": "0xd79900a3"
    },
    {
      "constant": true,
      "inputs": [
        {
          "name": "",
          "type": "uint256"
        }
      ],
      "name": "profilesValid",
      "outputs": [
        {
          "name": "",
          "type": "address"
        }
      ],
      "payable": false,
      "stateMutability": "view",
      "type": "function",
      "signature": "0xdc8bb93f"
    },
    {
      "inputs": [],
      "payable": false,
      "stateMutability": "nonpayable",
      "type": "constructor",
      "signature": "constructor"
    },
    {
      "anonymous": false,
      "inputs": [
        {
          "indexed": false,
          "name": "id",
          "type": "uint256"
        },
        {
          "indexed": false,
          "name": "name",
          "type": "string"
        },
        {
          "indexed": false,
          "name": "hash",
          "type": "string"
        },
        {
          "indexed": false,
          "name": "content",
          "type": "string"
        },
        {
          "indexed": false,
          "name": "tipAmount",
          "type": "uint256"
        },
        {
          "indexed": false,
          "name": "author",
          "type": "address"
        }
      ],
      "name": "PostCreated",
      "type": "event",
      "signature": "0x6dbf8011652ab6c578094a9a71e68b3aaa229e9556ac1da8264c9f191aac2395"
    },
    {
      "anonymous": false,
      "inputs": [
        {
          "indexed": false,
          "name": "id",
          "type": "uint256"
        },
        {
          "indexed": false,
          "name": "hash",
          "type": "string"
        },
        {
          "indexed": false,
          "name": "content",
          "type": "string"
        },
        {
          "indexed": false,
          "name": "tipAmount",
          "type": "uint256"
        },
        {
          "indexed": false,
          "name": "author",
          "type": "address"
        }
      ],
      "name": "PostTipped",
      "type": "event",
      "signature": "0x8cdd31fc6bd9c789638fdbd3ed5c788b27fa5d287f300e92f3c436ba03527db3"
    },
    {
      "constant": false,
      "inputs": [
        {
          "name": "_content",
          "type": "string"
        },
        {
          "name": "_hash",
          "type": "string"
        }
      ],
      "name": "createPost",
      "outputs": [],
      "payable": false,
      "stateMutability": "nonpayable",
      "type": "function",
      "signature": "0x392338f5"
    },
    {
      "constant": false,
      "inputs": [
        {
          "name": "_postId",
          "type": "uint256"
        },
        {
          "name": "_content",
          "type": "string"
        }
      ],
      "name": "addComment",
      "outputs": [],
      "payable": false,
      "stateMutability": "nonpayable",
      "type": "function",
      "signature": "0xaa7e5683"
    },
    {
      "constant": false,
      "inputs": [
        {
          "name": "_id",
          "type": "uint256"
        }
      ],
      "name": "tipPost",
      "outputs": [],
      "payable": true,
      "stateMutability": "payable",
      "type": "function",
      "signature": "0x74d3c1f8"
    },
    {
      "constant": false,
      "inputs": [
        {
          "name": "_name",
          "type": "string"
        }
      ],
      "name": "createProfile",
      "outputs": [],
      "payable": false,
      "stateMutability": "nonpayable",
      "type": "function",
      "signature": "0x334c3f0e"
    },
    {
      "constant": true,
      "inputs": [],
      "name": "returnName",
      "outputs": [
        {
          "name": "",
          "type": "string"
        }
      ],
      "payable": false,
      "stateMutability": "view",
      "type": "function",
      "signature": "0x5ea5cabe"
    }
  ],
  "bytecode": "0x60806040526000600155600060055560006006556000600a556000600b553480156200002a57600080fd5b506040805190810160405280601e81526020017f4461707020556e697665727369747920536f6369616c204e6574776f726b000081525060009080519060200190620000789291906200007f565b506200012e565b828054600181600116156101000203166002900490600052602060002090601f016020900481019282601f10620000c257805160ff1916838001178555620000f3565b82800160010185558215620000f3579182015b82811115620000f2578251825591602001919060010190620000d5565b5b50905062000102919062000106565b5090565b6200012b91905b80821115620001275760008160009055506001016200010d565b5090565b90565b611c7d806200013e6000396000f3fe6080604052600436106100e6576000357c0100000000000000000000000000000000000000000000000000000000900463ffffffff16806306fdde03146100eb5780630b1e7f831461017b57806317906c2e14610348578063334c3f0e14610373578063355933f21461043b578063392338f51461048a5780634ec2491e146105e95780635ea5cabe146106145780636845dabd146106a457806374d3c1f8146106cf578063890eba68146106fd5780638ebb4c1514610728578063aa7e56831461081d578063bc381903146108ef578063d79900a31461093e578063dc8bb93f14610969575b600080fd5b3480156100f757600080fd5b506101006109e4565b6040518080602001828103825283818151815260200191508051906020019080838360005b83811015610140578082015181840152602081019050610125565b50505050905090810190601f16801561016d5780820380516001836020036101000a031916815260200191505b509250505060405180910390f35b34801561018757600080fd5b506101b46004803603602081101561019e57600080fd5b8101908080359060200190929190505050610a82565b604051808781526020018060200180602001806020018681526020018573ffffffffffffffffffffffffffffffffffffffff1673ffffffffffffffffffffffffffffffffffffffff168152602001848103845289818151815260200191508051906020019080838360005b8381101561023a57808201518184015260208101905061021f565b50505050905090810190601f1680156102675780820380516001836020036101000a031916815260200191505b50848103835288818151815260200191508051906020019080838360005b838110156102a0578082015181840152602081019050610285565b50505050905090810190601f1680156102cd5780820380516001836020036101000a031916815260200191505b50848103825287818151815260200191508051906020019080838360005b838110156103065780820151818401526020810190506102eb565b50505050905090810190601f1680156103335780820380516001836020036101000a031916815260200191505b50995050505050505050505060405180910390f35b34801561035457600080fd5b5061035d610ca6565b6040518082815260200191505060405180910390f35b34801561037f57600080fd5b506104396004803603602081101561039657600080fd5b81019080803590602001906401000000008111156103b357600080fd5b8201836020820111156103c557600080fd5b803590602001918460018302840111640100000000831117156103e757600080fd5b91908080601f016020809104026020016040519081016040528093929190818152602001838380828437600081840152601f19601f820116905080830192505050505050509192919290505050610cac565b005b34801561044757600080fd5b506104746004803603602081101561045e57600080fd5b8101908080359060200190929190505050610d7b565b6040518082815260200191505060405180910390f35b34801561049657600080fd5b506105e7600480360360408110156104ad57600080fd5b81019080803590602001906401000000008111156104ca57600080fd5b8201836020820111156104dc57600080fd5b803590602001918460018302840111640100000000831117156104fe57600080fd5b91908080601f016020809104026020016040519081016040528093929190818152602001838380828437600081840152601f19601f8201169050808301925050505050505091929192908035906020019064010000000081111561056157600080fd5b82018360208201111561057357600080fd5b8035906020019184600183028401116401000000008311171561059557600080fd5b91908080601f016020809104026020016040519081016040528093929190818152602001838380828437600081840152601f19601f820116905080830192505050505050509192919290505050610d93565b005b3480156105f557600080fd5b506105fe61122b565b6040518082815260200191505060405180910390f35b34801561062057600080fd5b50610629611231565b6040518080602001828103825283818151815260200191508051906020019080838360005b8381101561066957808201518184015260208101905061064e565b50505050905090810190601f1680156106965780820380516001836020036101000a031916815260200191505b509250505060405180910390f35b3480156106b057600080fd5b506106b9611310565b6040518082815260200191505060405180910390f35b6106fb600480360360208110156106e557600080fd5b8101908080359060200190929190505050611316565b005b34801561070957600080fd5b50610712611835565b6040518082815260200191505060405180910390f35b34801561073457600080fd5b506107616004803603602081101561074b57600080fd5b810190808035906020019092919050505061183b565b60405180858152602001848152602001806020018373ffffffffffffffffffffffffffffffffffffffff1673ffffffffffffffffffffffffffffffffffffffff168152602001828103825284818151815260200191508051906020019080838360005b838110156107df5780820151818401526020810190506107c4565b50505050905090810190601f16801561080c5780820380516001836020036101000a031916815260200191505b509550505050505060405180910390f35b34801561082957600080fd5b506108ed6004803603604081101561084057600080fd5b81019080803590602001909291908035906020019064010000000081111561086757600080fd5b82018360208201111561087957600080fd5b8035906020019184600183028401116401000000008311171561089b57600080fd5b91908080601f016020809104026020016040519081016040528093929190818152602001838380828437600081840152601f19601f820116905080830192505050505050509192919290505050611923565b005b3480156108fb57600080fd5b506109286004803603602081101561091257600080fd5b8101908080359060200190929190505050611a78565b6040518082815260200191505060405180910390f35b34801561094a57600080fd5b50610953611a9b565b6040518082815260200191505060405180910390f35b34801561097557600080fd5b506109a26004803603602081101561098c57600080fd5b8101908080359060200190929190505050611aa1565b604051808273ffffffffffffffffffffffffffffffffffffffff1673ffffffffffffffffffffffffffffffffffffffff16815260200191505060405180910390f35b60008054600181600116156101000203166002900480601f016020809104026020016040519081016040528092919081815260200182805460018160011615610100020316600290048015610a7a5780601f10610a4f57610100808354040283529160200191610a7a565b820191906000526020600020905b815481529060010190602001808311610a5d57829003601f168201915b505050505081565b6002602052806000526040600020600091509050806000015490806001018054600181600116156101000203166002900480601f016020809104026020016040519081016040528092919081815260200182805460018160011615610100020316600290048015610b345780601f10610b0957610100808354040283529160200191610b34565b820191906000526020600020905b815481529060010190602001808311610b1757829003601f168201915b505050505090806002018054600181600116156101000203166002900480601f016020809104026020016040519081016040528092919081815260200182805460018160011615610100020316600290048015610bd25780601f10610ba757610100808354040283529160200191610bd2565b820191906000526020600020905b815481529060010190602001808311610bb557829003601f168201915b505050505090806003018054600181600116156101000203166002900480601f016020809104026020016040519081016040528092919081815260200182805460018160011615610100020316600290048015610c705780601f10610c4557610100808354040283529160200191610c70565b820191906000526020600020905b815481529060010190602001808311610c5357829003601f168201915b5050505050908060040154908060050160009054906101000a900473ffffffffffffffffffffffffffffffffffffffff16905086565b60015481565b60033390806001815401808255809150509060018203906000526020600020016000909192909190916101000a81548173ffffffffffffffffffffffffffffffffffffffff021916908373ffffffffffffffffffffffffffffffffffffffff1602179055505080600460003373ffffffffffffffffffffffffffffffffffffffff1673ffffffffffffffffffffffffffffffffffffffff1681526020019081526020016000209080519060200190610d65929190611adf565b5060056000815480929190600101919050555050565b60076020528060005260406000206000915090505481565b60008251111515610da357600080fd5b60016000815480929190600101919050555060606040805190810160405280600181526020017f2000000000000000000000000000000000000000000000000000000000000000815250905060008090505b600380549050811015610f57573373ffffffffffffffffffffffffffffffffffffffff16600382815481101515610e2857fe5b9060005260206000200160009054906101000a900473ffffffffffffffffffffffffffffffffffffffff1673ffffffffffffffffffffffffffffffffffffffff161415610f4a57600460003373ffffffffffffffffffffffffffffffffffffffff1673ffffffffffffffffffffffffffffffffffffffff1681526020019081526020016000208054600181600116156101000203166002900480601f016020809104026020016040519081016040528092919081815260200182805460018160011615610100020316600290048015610f425780601f10610f1757610100808354040283529160200191610f42565b820191906000526020600020905b815481529060010190602001808311610f2557829003601f168201915b505050505091505b8080600101915050610df5565b5060c0604051908101604052806001548152602001828152602001838152602001848152602001600081526020013373ffffffffffffffffffffffffffffffffffffffff16815250600260006001548152602001908152602001600020600082015181600001556020820151816001019080519060200190610fda929190611b5f565b506040820151816002019080519060200190610ff7929190611b5f565b506060820151816003019080519060200190611014929190611b5f565b506080820151816004015560a08201518160050160006101000a81548173ffffffffffffffffffffffffffffffffffffffff021916908373ffffffffffffffffffffffffffffffffffffffff1602179055509050507f6dbf8011652ab6c578094a9a71e68b3aaa229e9556ac1da8264c9f191aac2395600154828486600033604051808781526020018060200180602001806020018681526020018573ffffffffffffffffffffffffffffffffffffffff1673ffffffffffffffffffffffffffffffffffffffff168152602001848103845289818151815260200191508051906020019080838360005b838110156111195780820151818401526020810190506110fe565b50505050905090810190601f1680156111465780820380516001836020036101000a031916815260200191505b50848103835288818151815260200191508051906020019080838360005b8381101561117f578082015181840152602081019050611164565b50505050905090810190601f1680156111ac5780820380516001836020036101000a031916815260200191505b50848103825287818151815260200191508051906020019080838360005b838110156111e55780820151818401526020810190506111ca565b50505050905090810190601f1680156112125780820380516001836020036101000a031916815260200191505b50995050505050505050505060405180910390a1505050565b60055481565b6060600460003373ffffffffffffffffffffffffffffffffffffffff1673ffffffffffffffffffffffffffffffffffffffff1681526020019081526020016000208054600181600116156101000203166002900480601f0160208091040260200160405190810160405280929190818152602001828054600181600116156101000203166002900480156113065780601f106112db57610100808354040283529160200191611306565b820191906000526020600020905b8154815290600101906020018083116112e957829003601f168201915b5050505050905090565b60065481565b60008111801561132857506001548111155b151561133357600080fd5b61133b611bdf565b6002600083815260200190815260200160002060c0604051908101604052908160008201548152602001600182018054600181600116156101000203166002900480601f0160208091040260200160405190810160405280929190818152602001828054600181600116156101000203166002900480156113fd5780601f106113d2576101008083540402835291602001916113fd565b820191906000526020600020905b8154815290600101906020018083116113e057829003601f168201915b50505050508152602001600282018054600181600116156101000203166002900480601f01602080910402602001604051908101604052809291908181526020018280546001816001161561010002031660029004801561149f5780601f106114745761010080835404028352916020019161149f565b820191906000526020600020905b81548152906001019060200180831161148257829003601f168201915b50505050508152602001600382018054600181600116156101000203166002900480601f0160208091040260200160405190810160405280929190818152602001828054600181600116156101000203166002900480156115415780601f1061151657610100808354040283529160200191611541565b820191906000526020600020905b81548152906001019060200180831161152457829003601f168201915b50505050508152602001600482015481526020016005820160009054906101000a900473ffffffffffffffffffffffffffffffffffffffff1673ffffffffffffffffffffffffffffffffffffffff1673ffffffffffffffffffffffffffffffffffffffff1681525050905060008160a0015190508073ffffffffffffffffffffffffffffffffffffffff166108fc349081150290604051600060405180830381858888f193505050501580156115fb573d6000803e3d6000fd5b50348260800151018260800181815250508160026000858152602001908152602001600020600082015181600001556020820151816001019080519060200190611646929190611b5f565b506040820151816002019080519060200190611663929190611b5f565b506060820151816003019080519060200190611680929190611b5f565b506080820151816004015560a08201518160050160006101000a81548173ffffffffffffffffffffffffffffffffffffffff021916908373ffffffffffffffffffffffffffffffffffffffff1602179055509050507f8cdd31fc6bd9c789638fdbd3ed5c788b27fa5d287f300e92f3c436ba03527db3600154836040015184606001518560800151856040518086815260200180602001806020018581526020018473ffffffffffffffffffffffffffffffffffffffff1673ffffffffffffffffffffffffffffffffffffffff168152602001838103835287818151815260200191508051906020019080838360005b8381101561178b578082015181840152602081019050611770565b50505050905090810190601f1680156117b85780820380516001836020036101000a031916815260200191505b50838103825286818151815260200191508051906020019080838360005b838110156117f15780820151818401526020810190506117d6565b50505050905090810190601f16801561181e5780820380516001836020036101000a031916815260200191505b5097505050505050505060405180910390a1505050565b600a5481565b6008602052806000526040600020600091509050806000015490806001015490806002018054600181600116156101000203166002900480601f0160208091040260200160405190810160405280929190818152602001828054600181600116156101000203166002900480156118f35780601f106118c8576101008083540402835291602001916118f3565b820191906000526020600020905b8154815290600101906020018083116118d657829003601f168201915b5050505050908060030160009054906101000a900473ffffffffffffffffffffffffffffffffffffffff16905084565b6000815111151561193357600080fd5b600660008154809291906001019190505550600060076000848152602001908152602001600020549050808060010191505060806040519081016040528060065481526020018481526020018381526020013373ffffffffffffffffffffffffffffffffffffffff16815250600860006006548152602001908152602001600020600082015181600001556020820151816001015560408201518160020190805190602001906119e4929190611b5f565b5060608201518160030160006101000a81548173ffffffffffffffffffffffffffffffffffffffff021916908373ffffffffffffffffffffffffffffffffffffffff1602179055509050508060076000858152602001908152602001600020819055506009839080600181540180825580915050906001820390600052602060002001600090919290919091505550505050565b600981815481101515611a8757fe5b906000526020600020016000915090505481565b600b5481565b600381815481101515611ab057fe5b906000526020600020016000915054906101000a900473ffffffffffffffffffffffffffffffffffffffff1681565b828054600181600116156101000203166002900490600052602060002090601f016020900481019282601f10611b2057805160ff1916838001178555611b4e565b82800160010185558215611b4e579182015b82811115611b4d578251825591602001919060010190611b32565b5b509050611b5b9190611c2c565b5090565b828054600181600116156101000203166002900490600052602060002090601f016020900481019282601f10611ba057805160ff1916838001178555611bce565b82800160010185558215611bce579182015b82811115611bcd578251825591602001919060010190611bb2565b5b509050611bdb9190611c2c565b5090565b60c0604051908101604052806000815260200160608152602001606081526020016060815260200160008152602001600073ffffffffffffffffffffffffffffffffffffffff1681525090565b611c4e91905b80821115611c4a576000816000905550600101611c32565b5090565b9056fea165627a7a72305820e9bc165e30ee718b1fd204675c0fff88fa7f4eb20e42dff35320900a8478ff160029",
  "source": "//SPOX-License-Identifier:MIT\npragma solidity ^0.5.0;\n\ncontract SocialNetwork {\n    string public name;\n    uint public postCount = 0;\n    mapping(uint => Post) public posts;\n    address[] public profilesValid;\n    mapping(address=>string) profiles;\n    uint256 public  profilecount=0;\n    uint public allCommentCount= 0;\n    mapping (uint => uint) public commentCount;\n    mapping(uint => comment) public comments;\n    uint[] public commentid;\n    uint256  public flag=0;\n    uint256 public accountcount=0;\n\n\n   \n    struct Post {\n        uint id;\n        string name;\n        string hash;\n        string content;\n        uint tipAmount;\n        address payable author;\n        \n    }\n     struct comment{\n        uint id;\n        uint postId;\n        string content;\n        address aurthor;\n    }\n\n    event PostCreated(\n        uint id,\n        string name,\n        string hash,\n        string content,\n        uint tipAmount,\n        address payable author\n    );\n\n    event PostTipped(\n        uint id,\n\n        string hash,\n        string content,\n        uint tipAmount,\n        address payable author\n    );\n\n    constructor() public {\n        name = \"Dapp University Social Network\";\n    }\n\n    function createPost(string memory _content,string memory _hash) public {\n        // Require valid content\n        require(bytes(_content).length > 0);\n        // Increment the post count\n        postCount ++;\n        string memory name1=\" \" ;\n\n        \n        for (uint i = 0; i < profilesValid.length; i++) {\n            if (profilesValid[i] == msg.sender) {\n                name1=profiles[msg.sender];\n            }\n        }\n     \n        // Create the post\n        posts[postCount] = Post(postCount,name1,_hash, _content, 0, msg.sender);\n\n        \n        \n      \n        // Trigger event\n        emit PostCreated(postCount,name1,_hash, _content, 0, msg.sender);\n        \n    }\n    function addComment(uint _postId,string memory _content) public{\n         require(bytes(_content).length > 0);\n         allCommentCount++;\n         uint count =commentCount[_postId];\n         count++;\n         comments[allCommentCount]=comment(allCommentCount,_postId,_content,msg.sender);\n        commentCount[_postId]=count;\n        commentid.push(_postId);\n    }\n\n    \n    \n \n    function tipPost(uint _id) public payable {\n        // Make sure the id is valid\n        require(_id > 0 && _id <= postCount);\n        // Fetch the post\n        Post memory _post = posts[_id];\n        // Fetch the author\n        address payable _author = _post.author;\n        // Pay the author by sending them Ether\n        address(_author).transfer(msg.value);\n        // Incremet the tip amount\n        _post.tipAmount = _post.tipAmount + msg.value;\n        // Update the post\n        posts[_id] = _post;\n        // Trigger an event\n        emit PostTipped(postCount,_post.hash, _post.content, _post.tipAmount, _author);\n    }\n\n    \n    function createProfile(string memory _name) public{\n        profilesValid.push(msg.sender);\n        profiles[msg.sender]=_name;\n        profilecount++;\n    }\n    function returnName()public view returns ( string memory){\n        return profiles[msg.sender];\n    }\n}",
  "sourcePath": "C:/thayyab/code/react/social-dc-app-01/src/contracts/SocialNetwork.sol",
  "compiler": {
    "name": "solc",
    "version": "0.5.0+commit.1d4f565a.Emscripten.clang"
  },
  "schemaVersion": "3.0.2",
  "updatedAt": "2024-05-06T08:49:00.604Z",
  "devdoc": {
    "methods": {}
  },
  "userdoc": {
    "methods": {}
  }
}